:100000000C947A070C94A2070C94A2070C94A207F4
:100010000C94A2070C94A2070C94A2070C94A207BC
:100020000C94A2070C94A2070C94692C0C94352B09
:100030000C94A2070C94A2070C94A2070C94A2079C
:100040000C94A2070C94A2070C94A2070C94A2078C
:100050000C94A2070C94A2070C94A2070C94782489
:100060000C94A2070C94A2070C94A2070C94A2076C
:100070000C94A2070C94A2070C94A2070C94A2075C
:100080000C94A2070C94A2070C94A2070C94A2074C
:100090000C94200D0C94A2070C94A2070C94A207B8
:1000A0000C94A2070C94A2070C94A207B825BB25B8
:1000B000AA25AE25B425DC25DC25DC25BF25C325F6
:1000C000C725CD25D125DC25D725084AD73B3BCEF2
:1000D000016E84BCBFFDC12F3D6C74319ABD568347
:1000E0003DDA3D00C77F11BED9E4BB4C3E916BAAFF
:1000F000AABE000000803F0000000000003E5B4FF1
:100100005B3E3E6B4F6B3E1C3E7C3E1C183C7E3C77
:10011000181C577D571C1C5E7F5E1C00183C180085
:10012000FFE7C3E7FF0018241800FFE7DBE7FF3015
:10013000483A060E2629792926407F050507407F83
:1001400005253F5A3CE73C5A7F3E1C1C08081C1CF6
:100150003E7F14227F22145F5F005F5F06097F01EC
:100160007F006689956A606060606094A2FFA294D7
:1001700008047E040810207E201008082A1C0808A5
:100180001C2A08081E101010100C1E0C1E0C3038F3
:100190003E3830060E3E0E06000000000000005FF4
:1001A00000000007000700147F147F14242A7F2A10
:1001B00012231308646236495620500008070300D2
:1001C000001C2241000041221C002A1C7F1C2A081E
:1001D000083E080800807030000808080808000081
:1001E00060600020100804023E5149453E00427FF5
:1001F000400072494949462141494D331814127F44
:100200001027454545393C4A4949314121110907E3
:100210003649494936464949291E00001400000064
:100220004034000000081422411414141414004136
:1002300022140802015909063E415D594E7C1211F3
:10024000127C7F494949363E414141227F4141412B
:100250003E7F494949417F090909013E41415173A6
:100260007F0808087F00417F41002040413F017F17
:10027000081422417F404040407F021C027F7F04DF
:1002800008107F3E4141413E7F090909063E415128
:10029000215E7F09192946264949493203017F0118
:1002A000033F4040403F1F2040201F3F4038403F19
:1002B000631408146303047804036159494D43002F
:1002C0007F4141410204081020004141417F040266
:1002D00001020440404040400003070800205454FD
:1002E00078407F28444438384444442838444428DB
:1002F0007F385454541800087E090218A4A49C782E
:100300007F0804047800447D40002040403D007F89
:100310001028440000417F40007C047804787C0869
:100320000404783844444438FC182424181824243D
:1003300018FC7C08040408485454542404043F4422
:10034000243C4040207C1C2040201C3C4030403C51
:1003500044281028444C9090907C4464544C4400B1
:100360000836410000007700000041360800020115
:100370000204023C2623263C1EA1A161123A404001
:10038000207A38545455592155557941225454787E
:1003900042215554784020545579400C1E52721217
:1003A00039555555593954545459395554545800A0
:1003B00000457C410002457D420001457C407D12A4
:1003C00011127DF0282528F07C5455450020545406
:1003D0007C547C0A097F4932494949323A444444B1
:1003E0003A324A4848303A4141217A3A42402078EC
:1003F000009DA0A07D3D4242423D3D4040403D3CED
:1004000024FF2424487E4943662B2FFC2F2BFF0911
:1004100029F620C0887E0903205454794100004405
:100420007D413048484A32384040227A007A0A0AF0
:10043000727D0D19317D2629292F28262929292663
:1004400030484D4020380808080808080808382FA8
:1004500010C8ACBA2F102834FA00007B0000081432
:100460002A142222142A14085500550055AA55AA08
:1004700055AAFF55FF55FF000000FF00101010FFA8
:1004800000141414FF001010FF00FF1010F010F003
:10049000141414FC001414F700FF0000FF00FF14F4
:1004A00014F404FC141417101F10101F101F141440
:1004B000141F00101010F0000000001F101010108A
:1004C0001F10101010F010000000FF10101010107E
:1004D00010101010FF10000000FF140000FF00FFBC
:1004E00000001F10170000FC04F414141710171458
:1004F00014F404F40000FF00F7141414141414147A
:10050000F700F7141414171410101F101F141414EC
:10051000F4141010F010F000001F101F0000001F56
:1005200014000000FC140000F010F01010FF10FF89
:10053000141414FF141010101F00000000F010FF1E
:10054000FFFFFFFFF0F0F0F0F0FFFFFF0000000002
:1005500000FFFF0F0F0F0F0F3844443844FC4A4A86
:100560004A347E02020606027E027E02635549413B
:10057000633844443C04407E201E2006027E020272
:1005800099A5E7A5991C2A492A1C4C7201724C3086
:100590004A4D4D303048784830BC625A463D3E495D
:1005A0004949007E0101017E2A2A2A2A2A44445F01
:1005B000444440514A444040444A51400000FF01F5
:1005C00003E080FF000008086B6B08361236243603
:1005D000060F090F06000018180000001010003068
:1005E00040FF0101001F01011E00191D1712003CF0
:1005F0003C3C3C000000000001B202FFFF019004FF
:100600000923A135016A020600016008000000000C
:1006100000000000006004400000000162020000D1
:1006200000600400400000037B034CCD6C03AB036F
:1006300036567600680402CB47A202180400058BE8
:10064000C1010C0400000000037F060CC92C979721
:1006500097038903264666006C02200002400400CE
:1006600000000002440400000000024804000000F2
:1006700000024C04000000000250040000000002D0
:1006800054040000000002580400000000025C0452
:100690000000000002BC040000000001EC040000A7
:1006A0004000037F060CC92C9797970402030D3571
:1006B0005D040904872D353D00A301000000000101
:1006C000078601FE074105F120283038077E0130FA
:1006D0000746019A074704F1283038076C04F128CF
:1006E00030380216020001FB00003E000B0036000D
:1006F0000100020003FC03650054FFEF0000FA80D4
:10070000000B128200010002FC0F280000FFFF45D1
:1007100081FFFFFA72FC0603E8FC030100017FFF82
:10072000FFFE8001001BFC0F3E033040FC0302CAA9
:10073000E3093E80000020FC0740FC0360FC03410D
:10074000FFFC040B2A0000165500002182FD8726BD
:1007500050FD80FC031FFC030580FC0601FC030226
:10076000FC0303000040FC05046F0002653200003A
:100770005EC040FC0FFB8C6F5DFD5D08D9007C7393
:100780003B006C12CC3200139D3200D0D6320008F0
:1007900000400001F4FFE6807902FC05D0D600009D
:1007A0002710FBFC0340FC0E01FC06010001FC05C8
:1007B000FA36FFBC308E0005FBF0FFD95BC8FFD0D6
:1007C0009ABE000010A9FFF41EB200CEBBF7FC03D6
:1007D00001FC0304000200020200000CFFC28000C2
:1007E0000001800000CF800040FC0601FC0606FCF2
:1007F0000414FC34033F68B6793528BCC67ED16C3E
:1008000080FC0340FC05B26AFC0E3FF0FC0330FCA8
:1008100022254D002F706D000005AE000C02D0FCAB
:1008200005650054FFEFFC0801000044FC040CFCCB
:100830000301FC0665FC03540000FFEFFC1240FCC2
:100840000F40FC1201FC0302FC291BFC2A40FC04A3
:100850001BFC3ED8DCBAA2F1DEB2B8B4A88191F795
:100860004A907F916AF3F9DBA8F9B0BAA080F2CE82
:1008700081F3C2F1C1F2C3F3CCA2B280F1C6D88039
:10088000BAA7DFDFDFF2A7C3CBC5B6F087A29424F7
:1008900048703C95406834589B78A2F183922D555E
:1008A0007DD8B1B4B8A1D09180F270F370F27C80A1
:1008B000A8F101B09887D943D886C988BAA1F20EA9
:1008C000B89780F1A9DFDFDFAADFDFDFF2AAC5CDAD
:1008D000C7A90CC92C97979797F1A989264666B0A6
:1008E000B4BA80ACDEF2CAF1B28C02A9B698008923
:1008F0000E161EB8A9B4992C547CB08AA896365608
:1009000076F1B9AFB4B083C0B8A89711B18F98B9D8
:10091000AFF0240844106418F1A329557DAF83B5C6
:1009200093AFF0002850F1A3869F61A6DADEDFD9ED
:10093000FAA38696DB31A6D9F8DFBAA68FC2C5C75F
:10094000B28CC1B8A2DFDFDFA3DFDFDFD8D8F1B818
:10095000A8B286B4980D355DB8AA98B0872D353DFC
:10096000B2B6BAAF8C96198F9FA70E161EB49AB85E
:10097000AA872C547CB9A3DEDFDFA3B180F2C4CDFB
:10098000C9F1B8A9B499830D355D89B9A32D557DF9
:10099000B593A30E161EA92C547CB8B4B0F197835E
:1009A000A81184A50998A383F0DA240844106418D8
:1009B000D8F1A529557DA58595021A2E3A565A409B
:1009C00048F9F3A3D9F8F0988324084410641897E1
:1009D00082A8F111F098A2240844106418DAF3DE1A
:1009E000D883A59401D9A302F1A2C3C5C7D8F184C5
:1009F00092A24DDA2AD84869D92AD86855DA32D86D
:100A00005071D932D8705DDA3AD85879D93AD87855
:100A100093A34DDA2AD84869D92AD86855DA32D84A
:100A20005071D932D8705DDA3AD85879D93AD87835
:100A3000A88A9AF02850789EF38818F19F1D98A8EC
:100A4000D908D8C89F129EF315A8DA1210D8F1AFB2
:100A5000C8978734B5B994A421F3D922D8F22DF3DD
:100A6000D92AD8F235F3D932D881A4606061D9612E
:100A7000D86C6869D969D8747071D971D8B1A384F8
:100A8000193D5DA3831A3E5E931030811011B8B0FA
:100A9000AF8F94F2DA3ED8B49AA88729DAF8D887CB
:100AA0009A35DAF8D8879A3DDAF8D8B1B9A498859A
:100AB000022E56A581000C14A397B08AF12DD928D7
:100AC000D84DD948D86DD968D8B1840DDA0ED8A3DD
:100AD0002983DA2C0ED8A3844983DA2C4C0ED8B89B
:100AE000B0A88A9AF520AADADFD8A840AAD0DADE20
:100AF000D8A860AADAD0DFD8F19786A8319B0699EA
:100B000007AB9728889BF00C201440B8B0B4A88C91
:100B10009CF0042851791D301438B282ABD0982C47
:100B2000505078789BF11AB0F08A9CA82951798BA3
:100B30002951798A2470598B2058718A4469388BDD
:100B40003940688A6448318B304960A58820097132
:100B5000584468113964493019F1AC002C547CF0C8
:100B60008CA804285078F1889726A85998AC8C0254
:100B7000264666F0899CA829517924705944693821
:100B8000644831A98809205970AB11384069A81907
:100B90003148608CA83C415C207C00F18798198624
:100BA000A86E767EA999882D557D9EB9A38A228A42
:100BB0006E8A568A5E9FB183062646660E2E4E6E5C
:100BC0009DB8AD002C547CF2B18CB499B9A32D55CD
:100BD0007D8191AC38AD3AB58391AC2DD928D84DF3
:100BE000D948D86DD968D88C9DAE29D904AED851D2
:100BF000D904AED879D904D881F39DAD008DAE1952
:100C000081ADD901D8F2AEDA26D88E912983A7D941
:100C1000ADADADADF32AD8D8F1B0AC89913E5E76DA
:100C2000F3AC2E2EF1B18C5A9CAC2C2828289CAC0D
:100C30003018A8988128343C9724A728343C9C2459
:100C4000F2B089AC912C4C6C8A9B2DD9D8D851D953
:100C5000D8D879D9D8D8F19E88A331DAD8D8912DAF
:100C6000D928D84DD948D86DD968D8B18393353DA6
:100C70008025DAD8D88569DAD8D8B49381A3283406
:100C80003CF3AB8BF8A391B609B4D9ABDEFAB087CD
:100C90009CB9A3DDF1A3A3A3A395F1A3A3A39DF105
:100CA000A3A3A3A3F2A3B49080F2A3A3A3A3A3A39B
:100CB000A3A3A3A3B2A3A3A3A3A3A3B087B599F1AE
:100CC000A3A3A398F1A3A3A3A397A3A3A3A3F39B75
:100CD000A3A3DCB9A7F1262626D8D8FF070605046A
:100CE0000100080A0B0C0D090000000200090F00AA
:100CF00000030401000C00000000000000000000E0
:100D00000000000000000408020110408040102094
:100D100040804080080204018040201002011080C1
:100D200010204040040404040403040502020202EB
:100D30000403020202020606060606060404020274
:100D4000020400000000250028002B002E003100C6
:100D500000000000240027002A002D003000080BAE
:100D60000002020201000904000001020200000565
:100D700024001001052401010104240206052406B3
:100D800000010705810310004009040100020A0068
:100D90000000070502024000000705830240000032
:100DA00000C18081C11201000202000040412336CF
:100DB0008000010102000112010002000000404118
:100DC00023368000010102000141726475696E6F73
:100DD000204C4C430041726475696E6F204C656F06
:100DE0006E6172646F0004030904000000000000DB
:100DF00000002A2B28000000000000000000000076
:100E0000000000000000000000002C9EB4A0A1A281
:100E1000A434A6A7A5AE362D3738271E1F202122C1
:100E200023242526B333B62EB7B89F8485868788BA
:100E3000898A8B8C8D8E8F909192939495969798AA
:100E4000999A9B9C9D2F3130A3AD35040506070868
:100E5000090A0B0C0D0E0F1011121314151617188A
:100E6000191A1B1C1DAFB1B0B50009040200010323
:100E7000000000092101010001226500070584032B
:100E800040000105010902A1010901A10085010538
:100E900009190129031500250195037501810295A2
:100EA00001750581030501093009310938158125CE
:100EB0007F750895038106C0C005010906A101855B
:100EC00002050719E029E71500250175019508813C
:100ED00002950175088103950675081500256505BD
:100EE00007190029658100C0B0075C09550A3E0C4E
:100EF0001127142E11241FBECFEFDAE0DEBFCDBFC5
:100F000016E0A0E0B1E0EAE2F7E602C005900D923B
:100F1000A03AB107D9F728E0A0EAB6E001C01D92D7
:100F2000AF3BB207E1F71EE0C4EFDEE004C022975A
:100F3000FE010E944C31C83ED107C9F70E942F27FD
:100F40000C9493330C94000067E275E085E598E01B
:100F50000E94822760EA76E081E597E00C944611D2
:100F600025E030E040E050E06AEB77E080EA96E090
:100F70000C94C210CF9385E598E00E947826892BC7
:100F800099F185E598E00E948826C82F6CE375E00A
:100F900085E598E00E9482276C2F85E598E00E9405
:100FA00084276DE076E085E598E00E948227C236CE
:100FB000D9F461E475E085E598E00E9482274091CC
:100FC000100750911107609112077091130722E0EA
:100FD00030E085E598E00E94372967E475E085E513
:100FE00098E0CF910C948227CF910895CF92DF9211
:100FF000EF92FF920F931F93CF93DF93EC017C014D
:101000008CE7E80EF11CF701808181FF2EC00E9461
:10101000C224AB01BC01CE010E94DA104AE26E018B
:10102000F7E2CF0ED11CB6018E010D5E1F4FC80135
:101030000E94291CA6016EEF76E0C8010E944B2297
:101040004EEF56E062EF76E0C8010E94BA2222EF2E
:1010500036E04EEF56E066EE76E0C8010E94862349
:1010600081E0FE01E258FF4F8083FE01E558FF4F0B
:1010700080818E3720F4F701808184FF0CC0CE017F
:101080004396DF91CF911F910F91FF90EF90DF90EA
:10109000CF900C94D21BDF91CF911F910F91FF90B5
:1010A000EF90DF90CF900895CF93DF93EC0120E095
:1010B00030E0A90160E070E00E94C21084EA95E08F
:1010C00099838883CE014396DF91CF910C94521B74
:1010D000EF92FF920F931F93CF93DF938C016AE4FB
:1010E00075E085E598E00E948F2788E897E00E94E8
:1010F000020C8CE08093B80061E070E080E090E04A
:101100000E94F124E8016396CE010E94F91BCE01F2
:101110000E94541CF82E811107C064E575E085E536
:1011200098E00E948F2744C060E0CE010E94071D16
:10113000CE010E940E1DCE010E94E01B62E370E012
:1011400080E090E00E94F12460E0CE010E94E71B65
:10115000CE010E948D1FE82E63E570E0CE010E9453
:10116000F51C6DEF7FEFCE010E94FB1C60E370E089
:10117000CE010E94011D66EB77E0CE010E94EF1CBC
:10118000EE20A1F06EE675E085E598E00E948227EA
:101190004AE050E061E070E085E598E00E94442874
:1011A0006FE875E085E598E00E948F27F80116A2A8
:1011B0008F2DDF91CF911F910F91FF90EF900895A8
:1011C000CF92DF92EF92FF92CF93DF93EC016A010F
:1011D0007B0188899EA1891791F0882319F061E924
:1011E00075E002C068E975E085E598E00E948F2708
:1011F0006889CE0143960E94071D88898EA3B70196
:10120000A601CE010E948E108823C1F07E0183E1E9
:10121000E80EF11CC7010E94B21BFE01E458FF4F0B
:1012200090E091838083C7010E940D1C982FC558C0
:10123000DF4F888381E09A3208F480E0DF91CF911C
:10124000FF90EF90DF90CF9008956AEA75E085E512
:1012500098E00C9482276BEB75E085E598E00E949E
:10126000822761E08BE00E94DD2561E08AE00E9438
:10127000DD2561E08FE00E94DD2561E08EE00E94C7
:10128000DD2561E080E10E94DD2561E088E00C94CD
:10129000DD250E948E090E9425090E94A4070E9454
:1012A0002B0921E04DE362E083EB96E00E94961962
:1012B00083EB96E00C94CB1A64E083EB96E00C94FD
:1012C0000D1981E597E00C94F010CF93DF93EC01BA
:1012D00080910E0790910F078C179D07E1F0D09336
:1012E0000F07C0930E0781E080934E0769EC75E00D
:1012F00085E598E00E9482274AE050E0BE0185E53E
:1013000098E00E9444286DE076E085E598E0DF9162
:10131000CF910C948227DF91CF910895CF93DF93E3
:1013200040E052EC61E070E085E598E00E940B2718
:1013300062E370E080E090E00E94F12466ED75E0E9
:1013400085E598E00E94822763EE75E085E598E0E8
:101350000E9482276BEE75E085E598E00E94822767
:101360006EEF75E085E598E00E94822766E076E002
:1013700085E598E00E9482276CE076E085E598E0BC
:101380000E9482276A9A61E085E00E94DD2560E084
:1013900086E10E94DD2580E090E00E9465098FE7EC
:1013A00090E00E944227EC010E945408D093170756
:1013B000C0931607CE010E9468088091160790918D
:1013C0001707DC01ED91FC910190F081E02D49E0DF
:1013D00050E060E070E00995609116077091170782
:1013E00081E597E00E9446116EE377E081E597E0A2
:1013F0000E94461168E177E081E597E0DF91CF91A7
:101400000C944611CF92DF92EF92FF9286E10E94F8
:101410006F25BC01882777FD8095982F0E94872F24
:101420006B017C0160931007709311078093120782
:101430009093130723E333E343EE50E40E94E82E36
:1014400087FF0EC08091E2069091E306019690938B
:10145000E3068093E20604971CF182E090E01AC054
:101460002DEC3CEC4CEE50E4C701B6010E94E82E96
:1014700087FF0AC08091E2069091E30618161906CC
:101480007CF081E090E006C01092E3061092E20644
:1014900080E090E0FF90EF90DF90CF900C94650992
:1014A000FF90EF90DF90CF90089540E050E0BA01B8
:1014B00081E597E00E94901125E030E040E050E0A7
:1014C00067EB7AE08EE397E00E94C21028EB3BE0E6
:1014D00040E050E062E07AE08BE297E00E94C210C8
:1014E00024EF31E040E050E067E17BE088E197E005
:1014F0000E94C21080E090E0A0E8BFE38093FE0667
:101500009093FF06A0930007B09301071092020783
:101510001092030710920407109205071092060715
:1015200010920707109208071092090710920A07F5
:1015300010920B0710920C0710920D071092F206F2
:101540001092F3061092F4061092F5061092F60629
:101550001092F7061092F8061092F9061092FA0609
:101560001092FB061092FC061092FD0608958091E1
:1015700008019091090118161906C4F42091E50696
:10158000211105C00197909309018093080181E022
:1015900082278093E50681112FC04091060150916A
:1015A0000701662757FD6095762F2FC080910E07A3
:1015B00090910F07009741F41092E50610924E07A4
:1015C00040E050E0BA0121C02091E506813091054C
:1015D00059F481E082278093E50681110DC048EE21
:1015E00053E060E070E011C0029799F481E0822737
:1015F0008093E506882329F04EE150E060E070E03A
:1016000004C048EC50E060E070E08EE397E00E9498
:1016100078106091E5068091E406861739F085E040
:101620000E9416268091E5068093E4060895809135
:10163000E10691E089278093E106882311F0729AF0
:1016400001C072988091140790911507892B29F495
:1016500044EF51E060E070E004C044E650E060E038
:1016600070E088E197E00C947810CF93CFB7F894AE
:1016700080918707811127C0E5E3FDE08491E7E1D0
:10168000FDE09491E82FF0E0EE0FFF1FE05BF24FDA
:10169000A591B4918C91892321F461E081E10E94AC
:1016A000162661E081E10E94DD258CB580618CBD4C
:1016B0008CB580648CBD61E08FE00E94DD2561E027
:1016C00080E10E94DD25809187078F5F80938707E7
:1016D000CFBFCF9108958091B80790E02091B907CE
:1016E000821B910908952091B9078091B8072817A6
:1016F00050F4E22FF0E0E654F84F808190E02F5F45
:101700002093B90708958FEF9FEF0895E091B907EF
:101710008091B807E81730F4F0E0E654F84F808184
:1017200090E008958FEF9FEF08950895CF92DF9294
:10173000EF92FF920F931F93CF93DF937C01CB0126
:101740008A0120919407222389F0EB016B01C40EDA
:10175000D51ECC15DD0569F06991D701ED91FC919D
:101760000190F081E02DC7010995F3CF642F0E940D
:10177000F70CC801DF91CF911F910F91FF90EF906F
:10178000DF90CF900895CF93DF931F92CDB7DEB750
:101790006983209194072223D1F02091950720326C
:1017A00040F021E030E0FC013383228380E090E0D0
:1017B00015C080919607E82FF0E0E956F84F99811F
:1017C00090838F5F809396078093950705C061E0B3
:1017D000CE0101960E94F70C81E090E00F90DF911E
:1017E000CF910895FC011382128248EE53E060E02D
:1017F00070E0448355836683778380E296E091832B
:10180000808308951092B9071092B8071092960736
:10181000109295070C94420C862F413208F040E25A
:101820006AEB77E00E94600C1092B9078093B807CA
:10183000089521E00C940C0C81E080939407609350
:10184000B707109296071092950708950C941C0CF8
:101850000F93062F21E04091950767E977E080918B
:10186000B7070E94A40C1092960710929507109249
:1018700094070F91089561E00C94280C88E897E094
:101880000C94F20B1092470881E080934508109267
:10189000440861E082E00E94162661E083E00E9435
:1018A0001626E9EBF0E080818E7F808380818D7F3A
:1018B000808388E48093B80085E48093BC00089519
:1018C000413208F03FC0909147089111FCCF91E060
:1018D00090934708209345082FEF2093DA07109242
:1018E0001F08240F20931E089093460890914608E5
:1018F000880F892B8093460880914408813041F4F9
:1019000010924408809146088093BB0085EC01C08A
:1019100085EE8093BC00809147088130E1F380918F
:101920001F08841710F440911F0820E238E0FB01E3
:10193000D9018A2F821B841718F48D918193F9CFD6
:10194000842F089580E008950F93413208F046C037
:10195000909147089111FCCF92E090934708009333
:1019600045089FEF9093DA0710921F0840931E08D6
:10197000FB0160E278E0DB019A2F961B941718F4C4
:1019800091919D93F9CF1092460890914608880F47
:10199000892B8093460880914408813041F410924D
:1019A0004408809146088093BB0085EC01C085EE19
:1019B0008093BC00222321F0809147088230E1F31C
:1019C0008091DA078F3F61F08091DA07803251F021
:1019D0008091DA07803341F483E007C081E005C0DD
:1019E00080E003C082E001C084E00F91089561327D
:1019F00098F420914708243089F46093FC07FC0197
:101A00008EEF97E0DC012A2F281B261718F421916E
:101A10002D93F9CF80E0089581E0089582E0089544
:101A200085ED8093BC008091BC0084FDFCCF1092BA
:101A30004708089585EC8093BC00109247080895EC
:101A40001F920F920FB60F9211242F933F934F9333
:101A50005F936F937F938F939F93AF93BF93EF9316
:101A6000FF938091B900887F803609F49CC068F5A7
:101A7000883209F45BC090F4803109F454C038F422
:101A8000882309F4F5C0883009F44DC0F5C08831C9
:101A900009F44CC0803209F45DC0EEC0803409F412
:101AA00068C048F4803309F455C0883309F0E4C0B5
:101AB0008093DA07A8C0803509F44FC0883509F44F
:101AC0005DC0883409F0D8C0D5C0883909F4C6C0D3
:101AD000A8F4883709F467C038F4883609F463C07D
:101AE000803709F460C0C8C0883809F4B7C08039AD
:101AF00009F45FC0803809F0BFC05BC0803B09F4C7
:101B000085C038F4803A09F466C0883A09F47EC08A
:101B1000B3C0803C09F4A6C0883C09F4A3C0883B4C
:101B200009F489C0A9C08091460810C090911F088F
:101B300080911E08981770F5E0911F0881E08E0FC4
:101B400080931F08F0E0E05EF74F80818093BB0038
:101B500085EC85C08093DA078DC0E0911F0881E095
:101B60008E0F80931F088091BB00F0E0E05EF74F7E
:101B7000808390911F0880911E086DC0E0911F081E
:101B800081E08E0F80931F088091BB00F0E0E05E43
:101B9000F74F80838091450881116CC081E080936C
:101BA000440884EA60C083E0809347081092DB0712
:101BB000CFCF8091DB07803208F050C0E091DB0787
:101BC00081E08E0F8093DB078091BB00F0E0E45250
:101BD000F84F8083BDCF8091DB07803230F4E091F5
:101BE000DB07F0E0E452F84F10820E94100D609184
:101BF000DB0770E0E0914008F09141088CED97E040
:101C000009951092DB070E941A0D36C084E080937C
:101C100047081092FD071092FC07E0914208F091EE
:101C2000430809958091FC07811105C081E08093EC
:101C3000FC071092FE07E091FD0781E08E0F809374
:101C4000FD07F0E0E250F84F80818093BB00909157
:101C5000FD078091FC07981708F47ACF85E88093F8
:101C6000BC000AC085EC8093BC001092470804C0F9
:101C70001092DA070E94100DFF91EF91BF91AF9182
:101C80009F918F917F916F915F914F913F912F9194
:101C90000F900FBE0F901F901895EF92FF920F9329
:101CA0001F93CF93DF9300D0CDB7DEB7062F142F4D
:101CB000682F88E897E029833A830E941C0C602FE4
:101CC00088E897E00E94C30B2981022FE22E3A8117
:101CD000F32E8E2D801B811740F4F70161917F0157
:101CE00088E897E00E94C30BF4CF88E897E00E9451
:101CF0003B0C91E0811190E0892F0F900F90DF91C4
:101D0000CF911F910F91FF90EF900895CF93DF93A4
:101D10001F92CDB7DEB749839E012F5F3F4F41E051
:101D20000E944D0E0F90DF91CF910895DF92EF92B8
:101D3000FF920F931F93CF93DF93C62F042F790148
:101D4000682F88E897E00E941C0C6C2F88E897E0C9
:101D50000E94C30B10E0000F111FD12CCD2DD0E03D
:101D6000C017D1078CF4CC0FDD1FCE0DDF1D6981AC
:101D700088E897E00E94C30B688188E897E00E949A
:101D8000C30BD394D394EACF88E897E00E943B0C2E
:101D900091E0811190E0892FDF91CF911F910F91F8
:101DA000FF90EF90DF900895CF93DF9300D0CDB7F1
:101DB000DEB75A8349839E012F5F3F4F41E00E9467
:101DC000960E0F900F90DF91CF9108953F924F9212
:101DD0005F926F927F928F929F92AF92BF92CF92BB
:101DE000DF92EF92FF920F931F93CF93DF9300D078
:101DF00000D000D0CDB7DEB7682E562E742E3A83B1
:101E000029830E94C2246B017C01312C412C872D37
:101E100090E09C838B834801A12CB12C3714B0F542
:101E2000662D88E897E00E941C0C652D88E897E0F5
:101E30000E94C30B88E897E00E943B0C662D88E85F
:101E400097E00E941C0C4B815C814319510941327F
:101E5000510514F040E250E0662D88E897E00E94BA
:101E6000190C88E897E00E946B0B892B59F101153A
:101E7000110579F10E94C2246C197D098E099F0910
:101E8000681579058A059B0520F11CC0011511050F
:101E900089F10E94C2246C197D098E099F0920E0F6
:101EA00030E0601771078207930720F1872D90E0DB
:101EB000242D332727FD309528173907DCF44424D7
:101EC0004A9418C0872D90E2971508F480E2380EE6
:101ED000A5CFE981FA81E40DF11D47FCFA95FE8357
:101EE000ED8388E897E00E94730BED81FE8180838B
:101EF0004394B7CF842D26960FB6F894DEBF0FBE5D
:101F0000CDBFDF91CF911F910F91FF90EF90DF90A8
:101F1000CF90BF90AF909F908F907F906F905F9089
:101F20004F903F9008950F931F9389019A0141E0CC
:101F30000E94E60E1F910F910895DF92EF92FF929B
:101F40000F931F93CF93DF931F92CDB7DEB7D42E9D
:101F500079019801AE014F5F5F4F0E94930F61E0DE
:101F600070E001C0660FDA94EAF799819623F701D1
:101F700090830F90DF91CF911F910F91FF90EF9081
:101F8000DF900895CF92DF92EF92FF920F931F930D
:101F9000CF93DF931F92CDB7DEB7C42ED22E970119
:101FA000AE014F5F5F4F0E94930F8823F1F04C2DDD
:101FB00050E04D1951094F5F5F4F61E070E002C082
:101FC000660F771FDA94E2F761507109042E01C0A1
:101FD000660F0A94EAF72981262330E002C035957E
:101FE00027954A95E2F7F80120830F90DF91CF9172
:101FF0001F910F91FF90EF90DF90CF900895EF9297
:10200000FF920F931F93CF93DF931F92CDB7DEB74D
:10201000182F062FF42EE22E20910A0130910B0189
:10202000AE014F5F5F4F0E94930F898121E030E046
:102030000F2C01C0220F0A94EAF7EE2019F0482F66
:10204000422B03C0422F409548234983602F812FA4
:102050000E94860E0F90DF91CF911F910F91FF90FC
:10206000EF900895DF92EF92FF920F931F93CF931B
:10207000DF931F92CDB7DEB7F82EE62ED42E122FA7
:1020800020910A0130910B01AE014F5F5F4F0E941A
:10209000930F882319F14D2D50E0411B51094F5FDB
:1020A0005F4FE1E0F0E002C0EE0FFF1F1A95E2F78C
:1020B0003197042E01C0EE0F0A94EAF701C0000F19
:1020C0004A95EAF74E2F409589814823E0234E2B0D
:1020D00049836E2D8F2D0E94860E01C080E00F90E7
:1020E000DF91CF911F910F91FF90EF90DF900895B6
:1020F0000F931F93FC01428353836483758306818E
:10210000178120853185040F151F261F371F028771
:102110001387248735871F910F9108950F931F937D
:10212000FC010285138524853585401B510B620B0C
:10213000730B77FD02C0808901C080E01F910F9171
:1021400008950F931F93CF93DF93EC01EE85FF85E6
:10215000309709F009950E94C2246E837F83888797
:1021600099870A811B812C813D81060F171F281F2B
:10217000391F0A871B872C873D87DF91CF911F91DD
:102180000F910895FC0180E396E09183808381E0C4
:10219000808B778766871682178210861186F28B6E
:1021A000E18B22833383448355832287338744879B
:1021B000558708950F931F93FC01468357836087CB
:1021C00071870281138124813581040F151F261F19
:1021D000371F02871387248735871F910F91089532
:1021E000EF92FF920F931F93CF93DF93EC01EE8555
:1021F000FF85309709F009950E94C2246093480832
:102200007093490880934A0890934B088E018FE0A1
:10221000E82EF12CD80153968D919C9154970097FC
:1022200089F0DC01ED91FC914091480850914908FA
:1022300060914A0870914B080280F381E02D099566
:10224000811119C0B1E0EB1AF1080E5F1F4FE114C4
:10225000F10401F7409148085091490860914A08FB
:1022600070914B08CE01DF91CF911F910F91FF909C
:10227000EF900C94DA10F80183899489DC01ED91D8
:10228000FC910480F581E02D0995DCCF20E030E061
:10229000FC01E20FF31F0388F489E02D309759F019
:1022A0000188F289E02DDB0151964D915C915297A6
:1022B000E417F50719F12E5F3F4F2E31310541F735
:1022C000FC0120E030E043895489452B79F4F90181
:1022D000EE0FFF1FE80FF91F748B638BFC0121A920
:1022E00032A92F5F3F4F32AB21AB08C02F5F3F4F6A
:1022F00032962F30310539F780E0089581E0089556
:1023000020E030E0FC01E20FF31F148A138A2E5FF5
:102310003F4F2E313105B1F7FC0112AA11AA0895E1
:10232000CF92DF92EF92FF92CF93DF93EC016A019D
:102330007B0120E030E0A90160E070E00E94C21063
:102340008AE396E0998388831AAA19AACE010E948B
:102350008011E881F9810190F081E02DB701A6019B
:10236000CE01DF91CF91FF90EF90DF90CF90099455
:102370002F923F924F925F926F927F928F929F9295
:10238000AF92BF92CF92DF92EF92FF920F931F9383
:10239000CF93DF9300D000D0CDB7DEB74C017C8364
:1023A0006B836A015901C8018701AC014C195D09B1
:1023B00057FF03C051954195510995016B817C816F
:1023C000261B370B37FF03C0319521953109222495
:1023D0002394312C2417350714F0212C312C21148F
:1023E000310459F03A2D2B2D5C01832F922F3B8124
:1023F0002C81DC82CB82C32ED22EAB81BC81AA166B
:10240000BB065CF43C2D2D2D6C01832F922F3B815C
:102410002C81BC82AB82A32EB22E2501EB81FC81E4
:102420004E1A5F0A3C016C187D0877FE03C0719458
:1024300061947108720157FE03C0FFEFEF1AFF0AA3
:10244000F594E794C816D9062CF421E030E03A83DD
:10245000298324C06FEF7FEF7A8369831FC0D40183
:10246000ED91FC910480F581E02D98012114310457
:10247000D9F04B815C81B601C4010995E618F708D3
:10248000F7FE06C0E981FA81CE0EDF1EE40CF51CD2
:102490002B813C812F5F3F4F3C832B836B817C8161
:1024A000A616B706E4F604C0A6016B817C81E4CFD2
:1024B0000F900F900F900F90DF91CF911F910F9180
:1024C000FF90EF90DF90CF90BF90AF909F908F9054
:1024D0007F906F905F904F903F902F9008956F92F4
:1024E0007F928F929F92AF92BF92CF92DF92EF92A4
:1024F000FF920F931F93CF93DF93EC015B016A016F
:1025000039014801E881F9810284F385E02D8701D2
:102510000995E881F981A601480D591D41505109DD
:102520000284F385E02D9301B501CE010995E88180
:10253000F9810084F185E02D9401A601B501CE0159
:102540000995E881F981B501660D771D6150710922
:102550000084F185E02D9401A601CE010995DF915B
:10256000CF911F910F91FF90EF90DF90CF90BF9090
:10257000AF909F908F907F906F900895EF92FF9211
:102580000F931F93DC01ED91FC91240F351F215017
:1025900031090680F781E02D780189019B010995B9
:1025A0001F910F91FF90EF900895EF92FF920F937C
:1025B0001F93DC01ED91FC91260F371F215031094B
:1025C0000680F781E02D78018A0109951F910F910E
:1025D000FF90EF9008956F927F928F929F92AF92AB
:1025E000BF92CF92DF92EF92FF920F931F93CF9300
:1025F000DF935C014A0169013801EB01C60ED71E69
:10260000CC15DD0574F4D501ED91FC910084F185C4
:10261000E02D87019301A401BE01C5010995219612
:10262000EFCFDF91CF911F910F91FF90EF90DF904F
:10263000CF90BF90AF909F908F907F906F900895B4
:10264000EF92FF920F931F93DC01ED91FC91119794
:102650001A960D911C911B9718962D913C911997E4
:102660000684F785E02D7B0140E050E060E070E0FB
:1026700009951F910F91FF90EF9008950895FC0127
:102680001382128284E496E091838083758364834D
:10269000578346837187608753874287158A1586DB
:1026A00014861786168621E0248B8FEF9FEF938B7D
:1026B000828B918B808B268B178A118E108E0895BA
:1026C0002F923F924F925F926F927F928F929F9242
:1026D000AF92BF92CF92DF92EF92FF920F931F9330
:1026E000CF93DF93CDB7DEB76A970FB6F894DEBF0E
:1026F0000FBECDBF1C0158874F831C870B87FA86FE
:10270000E986CC82DC0158964D915C915997411530
:10271000510509F0A6C018968D919C9119976817DC
:1027200079070CF056C11A968D919C911B97EF81F9
:10273000F885E817F9070CF04CC1D12CCB013C818E
:10274000F6E03F9F800D911D1124181619060CF01C
:1027500040C1C60103E0880F991F0A95E1F74F8138
:102760005885840F951F181619060CF032C157961C
:102770008C91811103C0203B08F02F5F7E876D870D
:102780004B01198218EFA12E10E0B12EA61AB70A3C
:1027900055E0259FA00CB11C11248981853039F0AA
:1027A000ED85FE85EA0DFB1D94919A8301C01A8286
:1027B0006F8078842301A8E0AD83BA81B0FF12C096
:1027C000D101ED91FC91BC81B13031F40480F581EF
:1027D000E02D2B853C8518C00684F785E02DEB8421
:1027E000FC841DC0E985FA852B853C85E217F3073B
:1027F000E1F0D101ED91FC91BC81B13059F404803C
:10280000F581E02D29853A85A2016D857E85C1017E
:1028100009950BC00684F785E02DE984FA848601CA
:102820009601A301B401C1010995EA81E695EA8305
:10283000FD81F150FD836C0C7D1C2FEF421A520A72
:10284000F111BBCF39813F5F39838C0C9D1C4D85C5
:102850005E854F5F5F4F5E874D87363009F09DCFB5
:10286000B8C0FA0134963491329785919491231B24
:10287000A7E02A9F800D911D1124FA012591349122
:10288000398B288BFC01459154915A8F498FFC015B
:102890003296549159873196A491AF873196E4913D
:1028A000FC013596249131968491BC81B23050F070
:1028B000622E772467FC7094E82FFF27E7FDF095E0
:1028C000FE87ED87FC81CF2ED12C6C9C40016D9C46
:1028D000900C7C9C900C1124860E971EA12C1982C2
:1028E000DE8ACD8AAB01420F511D27FD5A955E83CA
:1028F0004D83AF81B885A80FB11D87FDBA95B88FFC
:10290000AF8B59818F85581708F063C0852F90E0F1
:102910002D853E85280F391F2C9DD0012D9DB00D92
:102920003C9DB00D1124EF81F885EA0FFB1FFB835E
:10293000EA836D807E802401FA2D2D81F21BFA8BB3
:102940004F89588D480F591F5C8B4B8B9A89960D78
:10295000862D2D81821B39858317B0F5977061F420
:10296000898D9A8D0196E889F989298D3A8DE20F32
:10297000F31FB4909A8F898FB7FE1DC0D101ED91DE
:10298000FC91BC81B13059F40480F581E02D2B8598
:102990003C854B895C89B301C10109950CC0068453
:1029A000F785E02DEB84FC84860196014A815B81EA
:1029B000B201C1010995BB0CED89FE894E0E5F1E67
:1029C000FFEF6F1A7F0AC2CFA30E49814F5F498381
:1029D00098CF6A960FB6F894DEBF0FBECDBFDF91D9
:1029E000CF911F910F91FF90EF90DF90CF90BF900C
:1029F000AF909F908F907F906F905F904F903F909F
:102A00002F900895AF92BF92CF92EF92FF920F93C3
:102A10001F93CF93DF93EC01262F888D998D00971C
:102A200009F042C06A3069F42C898E859F8538E0B0
:102A3000239F800D911D11249F878E871D861C86E4
:102A4000ABC06D3009F4A8C08E898823C1F03C89E1
:102A50008C859D8546E0349F800D911D112448850D
:102A60005985841795075CF01D861C868E859F8589
:102A7000E8E03E9F800D911D11249F878E87EA8894
:102A8000FB88088919894E855F856C857D85CC8892
:102A9000CE010E9460132C898C859D85F6E02F9FC6
:102AA000800D911D112441C06A3079F41D861C8669
:102AB0004C89FC01369684912E853F85489F200DD8
:102AC000311D11243F872E8767C06D3009F464C023
:102AD000AC014C5F5F4FFA013491631708F45CC09E
:102AE0003196E491E61708F457C0FA014491362F65
:102AF000341BFC013296A590B490F7E03F9FA00CE8
:102B0000B11C1124F5013296A4913196E491AA23C7
:102B100011F0E1110DC0F5013496A4902C898C853B
:102B20009D85A29E800D911D11249D878C8734C0A8
:102B3000F5013596E4913E89332309F13C89B0E0F3
:102B4000AE0FB11DE7FDBA953A9FA0013B9F500D16
:102B500011246C857D85460F571F6885798546173A
:102B600057076CF01D861C86FC01369684914E85B5
:102B70005F85389F400D511D11245F874E87EA887D
:102B8000FB88088919894E855F856C857D85CC8891
:102B9000CE010E946013BFCF81E090E0DF91CF9122
:102BA0001F910F91FF90EF90CF90BF90AF9008953D
:102BB000FC0185890895FC01808591850895FC01BB
:102BC0008285938508950F931F93CF93DF93EC0134
:102BD0008D89823061F08330D9F0813009F0C8C02E
:102BE000EC81FD81E41BF50B3197DB0118C08C8172
:102BF0009D81DC01A61BB70BBD018E819F81FC016D
:102C0000E41BF50BAF0141505109621B730BB0C0BF
:102C1000AE81BF81A61BB70BA21BB30BFA01F7FD58
:102C200005C18C819D81E817F9070CF0FFC0B7FF43
:102C300004C02A0F3B1FA0E0B0E08E819F81AD0150
:102C4000420F531F841795071CF49C012A1B3B0B52
:102C5000121613060CF0EAC0422F8A2F869586952D
:102C6000869590E8899FE00DF11D1124E45EFE4FEA
:102C7000A77069F158E05A1B852F90E0EC01CC5EFB
:102C8000DE4F6881251760F4DC01A21BB1098FEFCC
:102C900090E00A2E02C0959587950A94E2F7682382
:102CA0000130110539F048F00230110551F48081EE
:102CB000862706C08081862B03C06095808186238D
:102CC0008083451708F4B2C0451BE058FF4F4830D9
:102CD000A0F102301105A9F4DF01842F9C91909599
:102CE0009C93A058BF4F88508830C0F788EF840F5E
:102CF000869586958695B0E88B9FE00DF11D112491
:102D000019C081E00130110509F080E0982F9195FC
:102D1000EF01842F9883C058DF4F88508830D0F758
:102D200088EF840F86958695869590E8899FE00DBB
:102D3000F11D1124E058FF4F4770442309F476C079
:102D4000A42FB0E0A45FBE4F9C910130110541F06B
:102D500050F00230110509F069C08081892706C052
:102D60008081892B03C090958081892380835EC0F8
:102D700057FD5CC08E819F81481759070CF056C0E3
:102D800077FF04C0260F371F60E070E08C819D81C3
:102D9000FB01E20FF31F8E179F071CF49C01261BFB
:102DA000370B121613060CF041C0CA0157FD0796E7
:102DB000E3E095958795EA95E1F79695982F882712
:102DC00097958795845E9E4F860F971F477055276E
:102DD00061E070E001C0660F4A95EAF7462F0130C6
:102DE000110541F088F00230110501F5FC01280FB2
:102DF000391F15C0FC01280F391FE217F307B1F086
:102E00008081842B8193F9CF6095FC01280F391FB5
:102E1000E217F30759F0808186238193F9CFE217F7
:102E2000F30721F0808184278193F9CFDF91CF913F
:102E30001F910F9108950F931F93CF93DF93FC0180
:102E40008589823069F08330E1F0813009F082C0F9
:102E5000C481D581C41BD50BC21BD30BDB0117C0AA
:102E600084819581DC01A61BB70BBD0161507109FE
:102E700086819781DC01A41BB50BAD01421B530B6E
:102E800069C0A681B781A61BB70B1197EA01B7FDF0
:102E900008C186819781A817B9070CF002C1D7FF36
:102EA00004C02C0F3D1FC0E0D0E084819581AE01AD
:102EB000420F531F841795071CF49C012C1B3D0BDC
:102EC000121613060CF0EDC0CD01B7FD079643E0D6
:102ED000959587954A95E1F79695982F8827979528
:102EE0008795845E9E4F8C0F9D1FA770BB2741E086
:102EF00050E00A2E01C0440F0A94EAF7642F013013
:102F0000110549F098F00230110509F0CAC0FC0122
:102F1000280F391F17C0FC01280F391FE217F307CC
:102F200009F4BFC08081862B8193F8CF4095FC01C6
:102F3000280F391FE217F30709F4B3C080818423F7
:102F40008193F8CFE217F30709F4ABC0808186279D
:102F50008193F8CF77FDA5C08481958168177907A3
:102F60000CF09FC057FF04C0240F351F40E050E015
:102F700086819781FA01E20FF31F8E179F071CF4D9
:102F80009C01241B350B121613060CF08AC0522F1D
:102F9000842F869586958695FB01B0E88B9FE00D82
:102FA000F11D1124E45EFE4F477069F168E0641B77
:102FB000862F90E0EC01CC5EDE4F4881261760F44E
:102FC000DC01A21BB1098FEF90E00A2E02C095959B
:102FD00087950A94E2F748230130110539F048F04B
:102FE0000230110551F48081842706C08081842B32
:102FF00003C04095808184238083561708F451C014
:10300000561BE058FF4F5830A0F102301105A9F4CB
:10301000DF01852F9C9190959C93A058BF4F8850BD
:103020008830C0F788EF850F869586958695B0E83D
:103030008B9FE00DF11D112419C081E001301105B5
:1030400009F080E0982F9195EF01852F9883C05863
:10305000DF4F88508830D0F788EF850F86958695AA
:10306000869590E8899FE00DF11D1124E058FF4FEF
:1030700057705523B1F0A52FB0E0A45FBE4F9C91CF
:103080000130110539F048F00230110551F480810A
:10309000892706C08081892B03C090958081892370
:1030A0008083DF91CF911F910F910895CF92DF928E
:1030B000EF92FF920F931F93CF93DF937C018B01CD
:1030C000EA01690177FDA0C00E94DB150817190706
:1030D0000CF09AC0D7FD98C0C7010E94DF15C81731
:1030E000D9070CF091C0C7010E94D815823009F0B1
:1030F0007FC0F701848195819C01201B310B8901E0
:103100000150110986819781FC01EC1BFD0BEF0139
:1031100021970BC0813049F4F701848195818C1B84
:103120009D0BE8018C0101501109F1E0CF16D1048B
:1031300031F010F132E0C316D104E1F165C0FE01B7
:10314000D7FD379683E0F595E7958A95E1F7F695F3
:10315000FE2FEE27F795E795E00FF11FE45EFE4F97
:10316000C770DD2781E090E00C2E01C0880F0A9423
:10317000EAF79081982B3AC0FE01D7FD3796A3E07D
:10318000F595E795AA95E1F7F695FE2FEE27F795C9
:10319000E795E00FF11FE45EFE4FC770DD2781E089
:1031A00090E00C2E01C0880F0A94EAF78095908178
:1031B00098231CC0FE01D7FD379663E0F595E7958F
:1031C0006A95E1F7F695FE2FEE27F795E795E00F64
:1031D000F11FE45EFE4FC770DD2781E090E00C2E0A
:1031E00001C0880F0A94EAF79081982790830CC059
:1031F000833009F08FCFF70186819781801B910B77
:103200008E01EC01219791CFDF91CF911F910F910A
:10321000FF90EF90DF90CF9008951F93CF93DF93AF
:10322000EC01162F40E450E060E870E00E943F138C
:103230008CE596E0998388838FEF8C8F88A38E8F9F
:103240008D8F1F8FDF91CF911F910895FC0181A178
:10325000882339F06EBD00000DB407FEFDCF8EB59A
:10326000089588E090E030E8A4A1B5A14C9123A591
:10327000209524232C93A2A1B3A122A5432F46235A
:1032800021F04C91422B4C9304C04C912095242367
:103290002C93A4A1B5A12C9143A5242B2C93369556
:1032A000019711F708951F93CF93DF93EC01162F29
:1032B0008C8D8F3F09F1EEA1FFA180819CA5892B08
:1032C0008083E8A5F9A590818DA5809589238083C9
:1032D000EEA1FFA190818CA5809589238083CE01EA
:1032E0000E942619EEA1FFA180819CA5892B8083D5
:1032F000DF91CF911F9108958A8D682F772767FD01
:10330000709588E897E00E94260C60E088E897E0D6
:103310000E94C30B612F88E897E00E94C30B88E8E6
:1033200097E0DF91CF911F910C943B0C0F931F936B
:10333000CF93DF93EC01162F022F6B8F4A8F8C8D6A
:103340008F3F09F48CC061E08E8D0E94DD2561E025
:1033500088A10E94DD2588A1992787FD9095FC0111
:10336000EC5DF24FE491F0E0EE0FFF1FEE5BF24FE9
:10337000259134913FA32EA3FC01EA5FF24F849183
:103380008CA78E8D992787FD9095FC01EC5DF24FFF
:10339000E491F0E0EE0FFF1FEE5BF24F25913491C8
:1033A00039A728A7FC01EA5FF24F84918DA789A174
:1033B000811134C061E08C8D0E94DD2561E08D8D2E
:1033C0000E94DD258D8D992787FD9095FC01EC5D90
:1033D000F24FE491F0E0EE0FFF1FEE5BF24F25910C
:1033E00034913DA32CA3FC01EA5FF24F84918BA79B
:1033F0008C8D992787FD9095FC01EC5DF24FE4914F
:10340000F0E0EE0FFF1FEE5BF24F259134913BA3EE
:103410002AA3FC01EA5FF24F84918AA789A188233D
:1034200011F10E94350B80918607882399F09FB790
:10343000F89480918607813059F48DB38093840786
:103440002DB380918507809582238DBB9FBF02C0DD
:103450009093840780E58CBD81E08DBD04C088E831
:1034600097E00E94020C0023F1F08F8D87FD1BC0B6
:1034700061E00E94DD2561E08F8D0E94162661E0EB
:1034800070E080E090E00E94F12460E08F8D0E9467
:1034900016266AE070E080E090E00E94F12461E08E
:1034A0008F8D0E9416266EEACE010E94531965ED9B
:1034B000CE010E94531960E8CE010E94531968EAB8
:1034C000CE010E9453196FE3CE010E94531963EDA0
:1034D000CE010E94531960E0CE010E94531960E4AE
:1034E000CE010E9453196DE8CE010E94531911308C
:1034F00011F460E101C064E1CE010E94531960E261
:10350000CE010E94531960E0CE010E94531961EA76
:10351000CE010E94531968ECCE010E9453196AED46
:10352000CE010E94531962E1CE010E94531961E855
:10353000CE010E945319113011F46FE901C06FECF4
:10354000CE010E94531969EDCE010E94531911302A
:1035500011F462E201C061EFCE010E9453196BEDDC
:10356000CE010E94531960E4CE010E94531964EA0F
:10357000CE010E94531966EACE010E9453196EE2F1
:10358000CE010E9453196FEACE01DF91CF911F91B6
:103590000F910C945319DF92EF92FF920F931F93A8
:1035A000CF93DF93EC0161E20E94531960E0CE01FA
:1035B0000E9453196FE7CE010E94531962E2CE01B7
:1035C0000E94531960E0CE010E94531967E0CE01BA
:1035D0000E9453198C8D8F3F31F1EEA1FFA18081A4
:1035E0009CA5892B8083E8A5F9A580819DA5892BC1
:1035F0008083EEA1FFA190818CA580958923808393
:103600000CE111E0F80161918F01CE010E942619B1
:10361000F5E00C311F07B1F7EEA1FFA180819CA559
:10362000892B808337C0D090B8008CE08093B8009D
:103630000CE111E06A8D772767FD709588E897E0C7
:103640000E94260CE0918807F09189070190F08193
:10365000E02D60E488E897E00995E12CF12CF80171
:10366000EE0DFF1D608188E897E00E94C30B8FEF8D
:10367000E81AF80AE0E1EE16F10489F788E897E025
:103680000E943B0C005F1F4FF5E00C311F0791F6C5
:10369000D092B800DF91CF911F910F91FF90EF90E2
:1036A000DF90089528E6FC0120830895462F69E104
:1036B000FC0180810C94860E0F93062F23E045E0D9
:1036C0006AE1FC0180810E9432100F9108950F93EE
:1036D000062F23E042E06AE1FC0180810E94321063
:1036E0000F9108950F93062F22E044E06BE1FC0157
:1036F00080810E9432100F9108950F93062F22E0CF
:1037000044E06CE1FC0180810E9432100F91089529
:10371000462F6FE1FC0180810C94860E462F60E2FB
:10372000FC0180810C94860E462F61E2FC018081B1
:103730000C94860E462F62E2FC0180810C94860E6A
:10374000643048F4262F220F260F2B5D622FFC01D8
:1037500080810C94860E0895462F68E3FC018081D9
:103760000C94860ECF93DF93EC0120910A013091E7
:103770000B01AC014F5F5F4F6AE388810E94930F9A
:103780008981DF91CF910895262F46E06AE6FC01FA
:1037900080810C94FF0F262F45E06AE6FC018081B2
:1037A0000C94FF0F21E042E06AE6FC0180810C945A
:1037B000FF0F21E041E06AE6FC0180810C94FF0FDD
:1037C00021E047E06BE6FC0180810C94FF0F262F7F
:1037D00046E06BE6FC0180810C94FF0F0F93062FEF
:1037E00023E042E06BE6FC0180810E9432100F91E1
:1037F0000895CF93DF93EC0161E00E94EE1B60E03F
:10380000CE010E94721B60E0CE010E947D1B60E031
:10381000CE01DF91CF910C94E71B0F931F93CF93B1
:10382000DF93EC0100910A0110910B019C012F5FC5
:103830003F4F42E062E788810E94E60E898190E076
:10384000982F88272A81822BDF91CF911F910F918A
:1038500008950F931F939B0100910A0110910B0192
:1038600064E7FC0180810E94E60E1F910F9108958C
:10387000EF92FF920F931F93CF93DF93EC01E090B1
:103880000A01F0900B018C010F5F1F4F26E046E00C
:1038900065E788810E94C20F8981DF91CF911F91D6
:1038A0000F91FF90EF9008950E94381C91E08433AF
:1038B00009F090E0892F08950F931F93CF93DF9322
:1038C000EC0100910A0110910B019C012F5F3F4F09
:1038D00040E060E088810E949D0F8981DF91CF9157
:1038E0001F910F910895262F40E060E0FC01808138
:1038F0000C94FF0FEF92FF920F931F93CF93DF93E0
:10390000EC01E0900A01F0900B018C010F5F1F4F5A
:1039100026E046E060E088810E94C20F8981DF9145
:10392000CF911F910F91FF90EF9008950F93062F65
:1039300026E046E060E0FC0180810E9432100F9199
:103940000895EF92FF920F931F93CF93DF93EC01B3
:10395000E0900A01F0900B018C010F5F1F4F26E0F1
:1039600046E061E088810E94C20F8981DF91CF919A
:103970001F910F91FF90EF9008950F93062F26E06F
:1039800046E061E0FC0180810E9432100F910895B1
:10399000EF92FF920F931F93CF93DF93EC01E09090
:1039A0000A01F0900B018C010F5F1F4F26E046E0EB
:1039B00062E088810E94C20F8981DF91CF911F91BF
:1039C0000F91FF90EF9008950F93062F26E046E0A9
:1039D00062E0FC0180810E9432100F910895AB01DA
:1039E0006AE0FC0180810C94D40EAB0163E1FC0120
:1039F00080810C94D40EAB0165E1FC0180810C94B4
:103A0000D40EAB0167E1FC0180810C94D40E262F0B
:103A100047E06AE6FC0180810C94FF0F21E043E05F
:103A20006AE6FC0180810C94FF0F6F7121116062C6
:103A300041116064462F6DE6FC0180810C94860E76
:103A4000462F6EE6FC0180810C94860ECF93DF93A7
:103A5000EC0120910A0130910B01AC014F5F5F4FE7
:103A60006FE688810E94930F8981DF91CF9108953D
:103A70005F926F927F928F929F92AF92BF92CF92FE
:103A8000DF92EF92FF920F931F93CF93DF937C010E
:103A90005B016A01622E702E20E040E0662D0E94DC
:103AA000151D602FC7010E94201DC0E0D0E0812CB1
:103AB00099249394CC15DD05A8F5CE014096C8163F
:103AC000D90618F45C2C5C1A02C0A0E15A2E252DF0
:103AD00030E0C401871991098217930714F4572C19
:103AE000519400910A0110910B0195012C0F3D1F7B
:103AF000452D6FE6F70180810E94E60EC50DD11DB0
:103B0000750CCC15DD05B0F6711001C0639420E092
:103B100040E0662DC7010E94151D672DC7010E9458
:103B2000201DC8CFDF91CF911F910F91FF90EF9093
:103B3000DF90CF90BF90AF909F908F907F906F90CD
:103B40005F9008952F923F924F925F926F927F9273
:103B50008F929F92AF92BF92CF92DF92EF92FF929D
:103B60000F931F93CF93DF93CDB7DEB728970FB690
:103B7000F894DEBF0FBECDBF5C017C836B835A839C
:103B80004983222EF02E20E040E0622D0E94151D78
:103B9000602FC5010E94201DEE2029F080E190E0F9
:103BA0000E9450313C01CC2039F080E190E00E942D
:103BB000503198878F8302C018861F82312C412C88
:103BC000512C812C912CE981FA818E169F0608F0E8
:103BD000A2C0C401409629813A812817390718F4F8
:103BE000D22ED81802C010E1D12E2D2D30E080E069
:103BF00091E08F1991098217930714F4DF2CD19467
:103C0000CC2089F1AF81B88594012A1B3B0B8A2F08
:103C10009F81891B8D1568F5332031F03A948FEF21
:103C2000481A580A1C921DC0C9018A0F9B1F84198B
:103C300095094B815C81480F591FFA0144914C3F13
:103C400011F04C930EC0AC014F5F5F4F8B819C8194
:103C5000480F591FFA0134903A941C92F1E04F1A20
:103C600051081196D4CFEB81FC81E80DF91DF8873E
:103C7000EF832F8138854D2D6FE6F50180810E94FD
:103C80004D0E2D2D30E03E832D83EE2059F1611431
:103C9000710441F120E040E0622DC5010E94151D34
:103CA0006F2DC5010E94201D00910A0110910B018A
:103CB00093014D2D6FE6F50180810E94E60E4D8146
:103CC0005E81B3018F8198850E944633892B51F024
:103CD000C3010E94E831CC2051F18F8198850E9468
:103CE000E83125C02D813E81820E931EFD0C898115
:103CF0009A818816990608F066CFF11001C02394C6
:103D000020E040E0622DC5010E94151D6F2DC50108
:103D10000E94201D58CFEE2019F0C3010E94E83107
:103D2000CC2039F08F8198850E94E83102C080E074
:103D300001C081E028960FB6F894DEBF0FBECDBF5C
:103D4000DF91CF911F910F91FF90EF90DF90CF9077
:103D5000BF90AF909F908F907F906F905F904F90AB
:103D60003F902F900895CF92EF920F93CC24C3945D
:103D70000E94A21D0F91EF90CF9008952F923F9235
:103D80004F925F926F927F928F929F92AF92BF926B
:103D9000CF92DF92EF92FF920F931F93CF93DF9317
:103DA00000D01F92CDB7DEB74C017B836A833A0106
:103DB000D22E222339F088E090E00E945031182F53
:103DC000F92E02C010E0F12C212C312C26143704DE
:103DD00008F051C0EA81FB81E20DF31DC101039699
:103DE0005C01DD20C1F04491F10131968A819B8113
:103DF000E80FF91F0491F1013296E80FF91F549072
:103E0000511044C0F4E02F0E311CEA81FB81EA0D11
:103E1000FB1D84910DC0408101815280EA81FB81AC
:103E2000E80FF91F51100DC084E0280E311C80816D
:103E30008130D1F442E368E3F40180810E94860E70
:103E4000C5CF1E2FFF2E452C512CC12CEE24E39400
:103E5000242FA201612F7F2DC4010E94A21D1201F7
:103E60002A0C3B1C8111B2CFDD2061F0812F9F2DE8
:103E70000E94E83107C0DD2039F0812F9F2D0E947C
:103E8000E83102C080E024C081E022C0252C312C22
:103E9000F2E0F51548F4B101812F9F2D49830E946E
:103EA0007732182FF92E4981812F9F2DA0E0B0E0A5
:103EB0002A813B812A0D3B1DA215B30520F6F9018D
:103EC000EA0FFB1F5491FC015193CF011196F4CFDF
:103ED0000F900F900F90DF91CF911F910F91FF9056
:103EE000EF90DF90CF90BF90AF909F908F907F909A
:103EF0006F905F904F903F902F90089521E00C9429
:103F0000BE1E462F60E7FC0180810C94860E462F72
:103F100061E7FC0180810C94860E8F929F92AF9294
:103F2000BF92CF92EF920F931F93CF93DF93CDB7B2
:103F3000DEB7C059D1090FB6F894DEBF0FBECDBFB2
:103F40005C010E94E01B6EE170E080E090E00E9466
:103F5000F12460E0C5010E94E71B21E041E060E13F
:103F6000C5010E94151D66E0C5010E94201DC50106
:103F70000E94261D20E040E060E0C5010E94151D62
:103F8000C5010E945C1CC5010E947A1C182FC50146
:103F90000E94A11C882EC5010E94C81C982E4FE7C4
:103FA00060E0C5010E94A01B60E0C5010E94CB1B20
:103FB00048E660E0C5010E94A01BC5010E94D91B14
:103FC00064E170E080E090E00E94F124EE24E3944C
:103FD00000E020E049E857E067EE76E0C5010E9486
:103FE000B31E882309F40EC240EC50E067E276E08D
:103FF000C5010E947E1F882309F406C263E0C50143
:104000000E94EE1B62E1C5010E94AC1B64E0C50189
:104010000E94561B61E0C5010E945C1B63E0C50164
:104020000E94671B63E0C5010E94721B63E0C5012B
:104030000E94811F60E0C5010E94871F60E0C501EA
:104040000E94731C612FC5010E94961C682DC5013A
:104050000E94BD1C692DC5010E94E41C812C912C7D
:10406000F401E850FA4FE491A1E8B0E0AC0FBD1FB5
:10407000A80DB11DEC9381E0880D9FEF891A990A74
:10408000E3E0E81568F7CD57DF4F4881C358D040CB
:1040900050E09A012E5F3F4F90E02817390704F750
:1040A000C12CEE24E394CE57DF4F0881C258D04094
:1040B000CF57DF4F2881C158D04061E870E06C0FC6
:1040C0007D1F6D5F7F4FC5010E94A21D60E0F4015E
:1040D000E850FA4FE491A1E8B0E0AC0FBD1FA60F85
:1040E000B11DEC936F5FFFEF8F1A9F0A643078F376
:1040F000CD57DF4F4881C358D04050E09A012E5F22
:104100003F4F862F90E0281739070CF7C12CEE247B
:10411000E394CE57DF4F0881C258D040CF57DF4FCE
:104120002881C158D04061E870E06C0F7D1F6D5F41
:104130007F4FC5010E94A21DC5010E94D21BC5016F
:104140000E940D1C482FBE016F5F7F4FC5010E946A
:10415000291C62E0C5010E94881B6CE9C5010E9410
:10416000941B60E5C5010E948E1B60E0C5010E94A2
:104170009A1BC5010E94D21B61E0C5010E94C41BAD
:1041800061E0C5010E94071DC5010E940E1D60E08F
:10419000F401E850FA4FE491A1E8B0E0AC0FBD1F84
:1041A000A60FB11DEC936F5F8FEF881A980A6430E9
:1041B00078F3CD57DF4F4881C358D04050E09A0183
:1041C0002E5F3F4F862F90E0281739070CF7C12C40
:1041D000EE24E394CE57DF4F0881C258D040CF572A
:1041E000DF4F2881C158D04061E870E06C0F7D1F1F
:1041F0006D5F7F4FC5010E94A21D60E0F401E85091
:10420000FA4FE491A1E8B0E0AC0FBD1FA60FB11DBD
:10421000EC936F5F9FEF891A990A643078F3CD575A
:10422000DF4F4881C358D04050E09A012E5F3F4F86
:10423000862F90E0281739070CF7C12CEE24E39461
:10424000CE57DF4F0881C258D040CF57DF4F28816B
:10425000C158D04061E870E06C0F7D1F6D5F7F4FEB
:10426000C5010E94A21D60E0F401E850FA4FE491FC
:10427000A1E8B0E0AC0FBD1FA60FB11DEC936F5FBE
:10428000EFEF8E1A9E0A643078F3CD57DF4F4881E6
:10429000C358D04050E09A012E5F3F4F862F90E0E8
:1042A000281739070CF7C12CEE24E394CE57DF4FC3
:1042B0000881C258D040CF57DF4F2881C158D04025
:1042C00061E870E06C0F7D1F6D5F7F4FC5010E943C
:1042D000A21DC5010E940D1C83309105D0F3482F0B
:1042E000BE016F5F7F4FC5010E94291CC5010E945E
:1042F000B21B60E0F401E850FA4FE491A1E8B0E0AD
:10430000AC0FBD1FA60FB11DEC936F5FFFEF8F1AAF
:104310009F0A643078F3CD57DF4F4881C358D040AF
:1043200050E09A012E5F3F4F862F90E02817390703
:104330000CF7CE57DF4F0881C258D040CF57DF4F20
:104340002881C158D04061E870E06C0F7D1F6D5F1F
:104350007F4FC5010E94381DC5010E940D1C83308E
:104360009105D0F3482FBE016F5F7F4FC5010E94BA
:10437000291CC5010E94B21BF401E850FA4F60E00D
:104380008491A1E8B0E0AC0FBD1FA60FB11D8C93C6
:104390006F5F643010F43196F3CFCD57DF4F488113
:1043A000C358D04050E09A012E5F3F4F862F90E0D7
:1043B0002817390784F761E870E06C0F7D1F6D5F87
:1043C0007F4FC12CEE24E394CE57DF4F0881C258B3
:1043D000D040CF57DF4F2881C158D040C5010E943F
:1043E000A21D60E0C5010E94071D8AE290E0F50170
:1043F00093838283C5010E94D21BC5010E94B21B18
:1044000080E003C081E001C082E0C057DF4F0FB6FB
:10441000F894DEBF0FBECDBFDF91CF911F910F91FA
:10442000EF90CF90BF90AF909F908F900895CF93D3
:10443000DF93DB01FA01309719F4EC01E881F9818F
:10444000808190E0982F88272181822B11969C9360
:104450008E93848190E0982F88272581822B139654
:104460009C938E931297808590E0982F88272185C2
:10447000822B15969C938E931497848590E0982FA9
:1044800088272585822B17969C938E93169780E01C
:10449000DF91CF910895FF920F931F93CF93DF93F6
:1044A000CDB7DEB728970FB6F894DEBF0FBECDBFED
:1044B0008B01BE016F5F7F4F0E941722F82E811182
:1044C0004CC069817A81882777FD8095982F0E945A
:1044D000872F20E030E040E858E30E946730F80181
:1044E00060837183828393836B817C81882777FDCE
:1044F0008095982F0E94872F20E030E040E858E315
:104500000E946730F80164837583868397836D8189
:104510007E81882777FD8095982F0E94872F20E045
:1045200030E040E858E30E946730F8016087718707
:10453000828793876F817885882777FD8095982F6C
:104540000E94872F20E030E040E858E30E94673067
:10455000F80164877587868797878F2D28960FB611
:10456000F894DEBF0FBECDBFDF91CF911F910F91A9
:10457000FF9008954F925F926F927F928F929F92D9
:10458000AF92BF92CF92DF92EF92FF920F931F9361
:10459000CF93DF93CDB7DEB728970FB6F894DEBF81
:1045A0000FBECDBF8B01DA011496CD90DD90ED905A
:1045B000FC9017971C964D905D906D907C901F9786
:1045C0008D909D90AD90BC90139718968D919D9174
:1045D0000D90BC91A02D89839A83AB83BC83A301EA
:1045E0009201C701B6010E9467306D837E838F837D
:1045F000988729813A814B815C81C501B4010E9471
:1046000067309B01AC016D817E818F8198850E940E
:10461000212E9B01AC010E94222EF8016083718340
:1046200082839383A7019601C501B4010E9467307C
:104630006D837E838F839887A301920169817A813C
:104640008B819C810E9467309B01AC016D817E81D2
:104650008F8198850E94222E9B01AC010E94222E00
:10466000D80114966D937D938D939C931797A50114
:104670009401C501B4010E9467304B015C01A701A0
:104680009601C701B6010E9467309B01AC01C501CC
:10469000B4010E94212E6B017C0129813A814B815A
:1046A0005C81CA01B9010E9467309B01AC01C7015E
:1046B000B6010E94212E6B017C01A3019201C3016E
:1046C000B2010E9467309B01AC01C701B6010E9494
:1046D000222EF801608771878287938780E0289671
:1046E0000FB6F894DEBF0FBECDBFDF91CF911F9103
:1046F0000F91FF90EF90DF90CF90BF90AF909F9081
:104700008F907F906F905F904F9008952F923F927F
:104710004F925F926F927F928F929F92AF92BF92D1
:10472000CF92DF92EF92FF920F931F93CF93DF937D
:1047300000D000D000D0CDB7DEB71B018A013E8388
:104740002D83FA01C080D180E280F380A701960119
:10475000C701B6010E94222E69837A838B839C83D2
:10476000F80184809580A680B780A5019401C501D9
:10477000B4010E94222E2B013C01A7019601698100
:104780007A818B819C810E9467306B017C01A5013D
:104790009401C301B2010E9467309B01AC01C701C3
:1047A000B6010E94222E20E030E040E85FE30E9444
:1047B000212E6B017C01F8012085318542855385CE
:1047C000C301B2010E9467302B013C01F80124852E
:1047D00035854685578569817A818B819C810E94C8
:1047E00067309B01AC01C301B2010E94212EA701D9
:1047F00096010E94952EF1016083718382839383D9
:10480000ED81FE816481758186819781C084D18428
:10481000E284F3849B01AC010E9467304B015C0190
:10482000A7019601C701B6010E9467309B01AC0148
:10483000C501B4010E94222E0E94CE309B01AC0122
:10484000ED81FE8160817181828193810E94EC2ED5
:104850000E94C02EF1016483758386839783ED8166
:10486000FE816081718182819381C084D184E284E0
:10487000F3849B01AC010E9467304B015C01A701EE
:104880009601C701B6010E9467309B01AC01C501CA
:10489000B4010E94222E0E94CE309B01AC01ED811A
:1048A000FE8164817581868197810E94EC2E0E9431
:1048B000C02EF101608771878287938780E02696FA
:1048C0000FB6F894DEBF0FBECDBFDF91CF911F9121
:1048D0000F91FF90EF90DF90CF90BF90AF909F909F
:1048E0008F907F906F905F904F903F902F900895A2
:1048F0001F920F920FB60F9211242F933F938F9315
:104900009F93AF93BF9380914D0890914E08A091D3
:104910004F08B091500830914C0823E0230F2D37F9
:1049200020F40196A11DB11D05C026E8230F0296B3
:10493000A11DB11D20934C0880934D0890934E0803
:10494000A0934F08B093500880915108909152085D
:10495000A0915308B09154080196A11DB11D8093F8
:10496000510890935208A0935308B0935408BF91F4
:10497000AF919F918F913F912F910F900FBE0F900C
:104980001F9018952FB7F89460914D0870914E08BC
:1049900080914F08909150082FBF08953FB7F89429
:1049A0008091510890915208A0915308B0915408F9
:1049B00026B5A89B05C02F3F19F00196A11DB11D7A
:1049C0003FBF6627782F892F9A2F620F711D811D97
:1049D000911D42E0660F771F881F991F4A95D1F7F6
:1049E0000895CF92DF92EF92FF92CF93DF936B0106
:1049F0007C010E94CE24EB01C114D104E104F10436
:104A000089F00E94DD2C0E94CE246C1B7D0B683E39
:104A1000734090F381E0C81AD108E108F108C85149
:104A2000DC4FEACFDF91CF91FF90EF90DF90CF90F6
:104A30000895789484B5826084BD84B5816084BD16
:104A400085B5826085BD85B5816085BDEEE6F0E007
:104A5000808181608083E1E8F0E010828081826063
:104A60008083808181608083E0E8F0E080818160E4
:104A70008083E1E9F0E080818260808380818160D1
:104A80008083E0E9F0E0808181608083E1ECF0E008
:104A90008081846080838081826080838081816066
:104AA0008083E3ECF0E0808181608083E0ECF0E0E3
:104AB000808182608083E2ECF0E08081816080838D
:104AC000EAE7F0E080818460808380818260808377
:104AD00080818160808380818068808308958231B5
:104AE00008F08251E82FF0E0E452F34FE491809116
:104AF0007B00E3FB222720F930E095E0220F331FF3
:104B00009A95E1F78F7D822B80937B00E7708091EF
:104B10001C0520E4829FC0011124E82BE0937C0057
:104B200080917A00806480937A0080917A0086FD7B
:104B3000FCCF809178002091790090E0922B08952D
:104B400090E0FC013197EF30F105B0F5EA5AFF4FE4
:104B50000C944A31809180008F7703C0809180004F
:104B60008F7D80938000089580918000877FF9CFAA
:104B700084B58F7702C084B58F7D84BD0895809100
:104B800090008F7707C0809190008F7D03C0809147
:104B90009000877F8093900008958091C0008F7768
:104BA00003C08091C0008F7D8093C00008958091E4
:104BB000C200877F8093C2000895CF93DF9390E077
:104BC000FC01EA5FF24F2491FC01EC5DF24F84910D
:104BD000882349F190E0880F991FFC01E05BF24FB8
:104BE000A591B4918E5B924FFC01C591D4919FB772
:104BF000611108C0F8948C91209582238C93888150
:104C000082230AC0623051F4F8948C91322F30958F
:104C100083238C938881822B888304C0F8948C91A1
:104C2000822B8C939FBFDF91CF9108950F931F9399
:104C3000CF93DF931F92CDB7DEB7282F30E0F90175
:104C4000E851F34F8491F901EA5FF24F1491F901B1
:104C5000EC5DF24F04910023C9F0882321F06983B1
:104C60000E94A0256981E02FF0E0EE0FFF1FEE5BB0
:104C7000F24FA591B4919FB7F8948C91611103C044
:104C80001095812301C0812B8C939FBF0F90DF91E2
:104C9000CF911F910F9108950E944133CF93DF93DD
:104CA0001F92CDB7DEB76983DC01ED91FC910280E4
:104CB000F381E02D41E050E0BE016F5F7F4F099529
:104CC0000F90DF91CF910895CF93DF93EC018C8506
:104CD0009D8597FF05C082E00E940A2A9D878C87E8
:104CE0008C859D85DF91CF91089583E00C945F2C96
:104CF000FC018485958597FD06C082E00E94B2295B
:104D000090E00196089582E00E94B22990E0089513
:104D1000FC018485958597FD05C02FEF3FEF358712
:104D20002487089582E00C940A2ACF93DF93EC0144
:104D300080912405882331F083E00E943B2A1816D5
:104D4000190634F081E090E09B838A8380E090E054
:104D5000DF91CF910895FC0120812E5F208342E4F2
:104D600050E06EE57DE080E80C94D62AFC0181815C
:104D70009081913A59F4813209F03CC047E050E00B
:104D80006DE175E080E00E94D62A43C0913291F532
:104D9000803239F467E070E08DE195E00E94072BE6
:104DA00006C0823209F035C082818093240580914B
:104DB0001D0590911E05A0911F05B0912005803B17
:104DC0009440A105B105C1F48091240580FD14C073
:104DD00087E797E790930108809300082BE088E12C
:104DE00090E00FB6F894A895809360000FBE2093D2
:104DF00060000FC080E0089588E10FB6F8948093BA
:104E00006000109260000FBEA895109201081092E9
:104E1000000881E008952FEF3FEFFC0135872487DC
:104E20000895109258081092570888EE93E0A0E079
:104E3000B0E08093590890935A08A0935B08B09310
:104E40005C0884E796E090935608809355088FEFAE
:104E50009FEF9093620880936108089508950E94DF
:104E600019250E942E2785EA98E00E94BF2C0E94F7
:104E70004909C0E0D0E00E9461092097E1F30E9457
:104E80000000F9CF0C945031CF92DF92EF92FF9255
:104E90000F931F93CF93DF936C017A01EB01E60E22
:104EA000F71E00E010E0CE15DF0561F06991D60134
:104EB000ED91FC910190F081E02DC6010995080F5C
:104EC000191FF1CFC801DF91CF911F910F91FF9072
:104ED000EF90DF90CF9008956115710581F0DB01AF
:104EE0000D900020E9F7AD0141505109461B570BC9
:104EF000DC01ED91FC910280F381E02D099480E0CA
:104F000090E008950C946C27DC01ED91FC910190E8
:104F1000F081E02D099460E876E00C946C270F9303
:104F20001F93CF93DF93EC010E946C278C01CE017D
:104F30000E948B27800F911FDF91CF911F910F91BE
:104F400008958F929F92AF92BF92CF92DF92EF928D
:104F5000FF920F931F93CF93DF93CDB7DEB7A19747
:104F60000FB6F894DEBF0FBECDBF7C01C42EE52F77
:104F7000CB01D22E19A221E02D1510F02AE0D22E5D
:104F80008E010F5D1F4F8D2C912CA12CB12C6C2DFF
:104F90007E2FA50194010E9428318C2DD29E80196C
:104FA0001124015011098A3014F4805D01C0895C1C
:104FB000F8018083211531054105510521F0C22EEC
:104FC000E32FCA01E4CFB801C7010E946C27A19664
:104FD0000FB6F894DEBF0FBECDBFDF91CF911F910A
:104FE0000F91FF90EF90DF90CF90BF90AF909F9088
:104FF0008F900895CF92DF92EF92FF920F931F93BD
:10500000CF93DF93EC016A017B012115310579F41F
:10501000E881F9810190F081E02D642FDF91CF913B
:105020001F910F91FF90EF90DF90CF9009942A305D
:105030003105E9F477FF1AC06DE20E9484278C01E4
:1050400044275527BA014C195D096E097F092AE0EA
:10505000CE010E94A127800F911FDF91CF911F9158
:105060000F91FF90EF90DF90CF9008952AE0B70165
:10507000A601CE01DF91CF911F910F91FF90EF908C
:10508000DF90CF900C94A1279A01AB01662757FDC2
:105090006095762F0C94FA274F925F926F927F92D1
:1050A0008F929F92AF92BF92CF92DF92EF92FF9238
:1050B0000F931F93CF93DF93EC016A017B01B22E14
:1050C0009A01AB01C701B6010E940F31882319F084
:1050D00063E876E027C026013701E89477F82FEFE0
:1050E0003FEF4FE75FE7C301B2010E940F3181112B
:1050F0000DC02FEF3FEF4FE75FE7C301B2010E9402
:10510000E82E18161CF467E876E00CC02FEF3FEF8E
:105110004FE75FE4C701B6010E945C301816ACF49B
:105120006BE876E0CE01DF91CF911F910F91FF9058
:10513000EF90DF90CF90BF90AF909F908F907F9037
:105140006F905F904F900C946C272FEF3FEF4FE7DD
:105150005FECC701B6010E94E82E87FDE1CF20E099
:1051600030E0A901C701B6010E94E82E87FF0AC0FE
:105170006DE2CE010E9484278C01F7FAF094F7F8D3
:10518000F09402C000E010E0A12C60E070E080E04C
:105190009FE3AB1441F020E030E040E251E40E9494
:1051A000EC2EA394F6CF9B01AC01C701B6010E947F
:1051B000222E6B017C010E94592F2B013C010E9481
:1051C000852F9B01AC01C701B6010E94212E6B0106
:1051D0007C012AE0B301A201CE010E94A127080FA1
:1051E000191FBB2039F06FE876E0CE010E946C27D2
:1051F000080F191F7B2C772041F120E030E040E2BE
:1052000051E4C701B6010E9467306B017C010E9426
:10521000542F4B01AA2497FCA094BA2C2AE030E02A
:10522000B501A401CE010E94FA27080F191FC5017C
:10523000B4010E94872F9B01AC01C701B6010E94F7
:10524000212E6B017C017A94D6CFC801DF91CF91DA
:105250001F910F91FF90EF90DF90CF90BF90AF9094
:105260009F908F907F906F905F904F9008950C94D7
:105270004C284091A9085091AA082091A708309184
:10528000A80842175307B4F49091E8009570E1F331
:105290009091E80092FD19C08093F1008091A908D7
:1052A0009091AA0801968F739927892B19F48EEF94
:1052B0008093E8008091A9089091AA0801969093A4
:1052C000AA088093A90881E0089580E00895CF920C
:1052D000DF92FF920F931F93CF93DF931F92CDB76F
:1052E000DEB7082F162F862F880F8E5F99830E94B6
:1052F000392983E00E943929F02EC02E9981D92EB8
:105300008C2D8F19811778F4F60184910E94392928
:10531000082F80E00E9439298023FFEFCF1ADF0A8F
:105320008111EECF01C081E00F90DF91CF911F91ED
:105330000F91FF90DF90CF900895615030F0209151
:10534000F100FC0120830196F8CF289884E6809331
:10535000AC0808952FB7FC012083F8946770609320
:10536000E9000895CF93DF931F92CDB7DEB7682F82
:10537000CE0101960E94AA298091F20099819FBFD7
:105380000F90DF91CF910895FF920F931F93CF93CA
:10539000DF9300D0CDB7DEB7F62E8A019091AB082F
:1053A000992311F057FF03C08FEF9FEF2BC0682F99
:1053B000CE0101967A830E94AA298091F20090E0A2
:1053C000A8017A81801791070CF4AC01EF2DF72F1B
:1053D000F40E84E6FE1639F028988093AC0890917C
:1053E000F1009193F7CF4115510521F08091F20022
:1053F000882321F089818FBFCA0104C08BE6809386
:10540000E800F8CF0F900F90DF91CF911F910F918F
:10541000FF900895CF93DF931F92CDB7DEB741E0A1
:1054200050E0BE016F5F7F4F0E94C429019719F4BD
:10543000898190E002C08FEF9FEF0F90DF91CF91B5
:105440000895CF93DF931F92CDB7DEB7682FCE01BB
:1054500001960E94AA299091E800892F807295FFF9
:1054600004C09091F20080E4891B99819FBF0F9046
:10547000DF91CF9108956F927F928F929F92AF921A
:10548000BF92CF92DF92EF92FF920F931F93CF9331
:10549000DF931F92CDB7DEB7782E7B01C42EB52ED9
:1054A0008091AB08882369F0042F152F8AEFD82E3E
:1054B000872D8072982E9AE3A92E872D8074882ECE
:1054C00011C08FEF9FEF57C0872D0E94212A682EB1
:1054D00081110CC0DA94A9F361E070E080E090E003
:1054E0000E94F1240115110579F73BC0282F30E007
:1054F000021713070CF4602E672DCE0101960E944F
:10550000AA298091E80085FF29C0262D30E0021BE2
:10551000130B992039F06A948FEF6816B1F010924E
:10552000F100F9CFF701862D77FE07C0815058F0C2
:1055300094919093F1003196F9CF815020F09191A0
:105540009093F100FACFE20EF31E8091E80085FF00
:105550000FC00115110511F481100AC089818FBF98
:10556000C1CF5D9884E68093AD088C2D9B2D03C040
:10557000A092E800F3CF0F90DF91CF911F910F9190
:10558000FF90EF90DF90CF90BF90AF909F908F9063
:105590007F906F9008951092E9001092AA081092DF
:1055A000A9089093A8088093A7080895CF92DF9246
:1055B000FF920F931F93CF93DF9300D0CDB7DEB749
:1055C000F82E8A016B0101151105B1F0F601F7FE05
:1055D00002C0849101C0808149835A830E94392985
:1055E00001501109FFEFCF1ADF0A49815A81811159
:1055F000EACF8FEF9FEF01C0CA010F900F90DF91AC
:10560000CF911F910F91FF90DF90CF9008951F933E
:10561000CF93DF931F92CDB7DEB7162F2091E8000E
:1056200022FFFCCF612F79830E949D298BEF80930D
:10563000E800812F7981972F0F90DF91CF911F91F3
:105640000895CF93DF931F92CDB7DEB71982CE01B5
:1056500001960E94AB26CE0101960E94FC2C898106
:1056600090E00F90DF91CF9108951F920F920FB6A7
:105670000F921124EF92FF920F931F932F933F935A
:105680004F935F936F937F938F939F93AF93BF934A
:10569000EF93FF93CF93DF93CDB7DEB76297DEBF73
:1056A000CDBF1092E9008091E80083FFEBC068E075
:1056B000CE010A960E949D2982EF8093E8009A8588
:1056C00097FF05C08091E80080FFFCCF03C08EEFFC
:1056D0008093E800892F807609F0B9C08B8581110D
:1056E00005C01092F1001092F100C5C0282F2D7F47
:1056F000213009F4C0C0853049F48091E80080FF72
:10570000FCCF8C8580688093E300B5C0863009F0BB
:1057100076C02D85E888F988223071F580E090E028
:105720002A8B0E94CB2A0E94212B99E08E010F5FC9
:105730001F4FF801392F11923A95E9F799832A8979
:105740002A8391E09E8390E898879AEF9987209129
:10575000A9083091AA08275F3F4F3C832B838D8394
:10576000C7010E94CB2A49E050E0B80180E00E94C6
:10577000D62A0E94212B7FC0C7012A8B0E94CB2AE8
:105780002A89223241F482E290E00E94072D892B7F
:1057900009F071C074C0213069F48889998908972B
:1057A00011F42093A6088091A608811118C067EB18
:1057B0007DE01AC0233009F062C08C85882391F007
:1057C000823021F460E185ED9DE006C0813009F072
:1057D00056C06BE089EC9DE00E9467294AC065EAEB
:1057E0007DE002C066EE7DE06115710509F447C0F9
:1057F000FB01449150E080E80E94D62A3CC08730EB
:1058000009F43DC0883021F481E08093F10033C079
:10581000893089F5937099F5E1EAFDE081E021E0B6
:1058200096E38093E9002093EB0034913093EC00F1
:105830009093ED008F5F3196853099F78EE78093D6
:10584000EA001092EA008C858093AB0814C0888926
:1058500099890E94CB2A8E85811105C0CE010A96B6
:105860000E94B62606C0823051F4CE010A960E94EC
:105870002F2D882321F08EEF8093E80003C081E272
:105880008093EB0062960FB6F894DEBF0FBECDBFDB
:10589000DF91CF91FF91EF91BF91AF919F918F9148
:1058A0007F916F915F914F913F912F911F910F9138
:1058B000FF90EF900F900FBE0F901F901895809360
:1058C000E9008091F200882319F08AE38093E800D0
:1058D00008951F920F920FB60F9211242F933F93AA
:1058E0004F935F936F937F938F939F93AF93BF93E8
:1058F000EF93FF938091E1001092E10083FF0FC0CE
:105900001092E90091E09093EB001092EC0092E38A
:105910009093ED001092AB0898E09093F00082FF16
:105920001DC083E00E945F2C8091AD08882339F070
:105930008091AD0881508093AD08882369F08091F3
:10594000AC08882359F08091AC0881508093AC0852
:10595000811104C0289A02C05D9AF1CFFF91EF91A6
:10596000BF91AF919F918F917F916F915F914F9177
:105970003F912F910F900FBE0F901F90189510928E
:10598000AB0881E08093D70080EA8093D80082E161
:1059900089BD09B400FEFDCF61E070E080E090E0D9
:1059A0000E94F12480E98093D8008CE08093E2008B
:1059B0001092E000559A209A08950895FF920F934F
:1059C0001F93CF93DF93EC01F62EE881F9810480D9
:1059D000F581E02D09958C01E881F9810680F78138
:1059E000E02D6F2DCE010995C8019927DF91CF9148
:1059F0001F910F91FF900895FC0120812F5F20835C
:105A000049E150E06AE67EE080E80C94D62A45E65B
:105A100050E063E87EE080E80C94D62AEF92FF9293
:105A20000F931F93CF93DF931F92CDB7DEB7898378
:105A30008B017A0141E050E0BE016F5F7F4F84E04F
:105A40000E943B2AA701B80184E40E943B2A0F90E0
:105A5000DF91CF911F910F91FF90EF900895FC017E
:105A600091818081813A31F481E0913091F09330DD
:105A700089F411C0813271F49B3021F482818093CA
:105A8000260505C09A3031F482818093250581E096
:105A90000895089580E0089548E050E082E00C9475
:105AA0000E2DCF93DF93DC01683818F0E8E7E60F9E
:105AB00025C0E62FF0E067FF11C0E058F10981E052
:105AC00090E001C0880FEA95EAF714969C9114972C
:105AD000982B14969C931497E0E010C0E651F24F77
